{
  "contractName": "Textboard",
  "abi": [
    {
      "constant": true,
      "inputs": [
        {
          "name": "",
          "type": "uint256"
        }
      ],
      "name": "posts",
      "outputs": [
        {
          "name": "id",
          "type": "uint256"
        },
        {
          "name": "text",
          "type": "string"
        },
        {
          "name": "date",
          "type": "uint256"
        }
      ],
      "payable": false,
      "stateMutability": "view",
      "type": "function",
      "signature": "0x0b1e7f83"
    },
    {
      "constant": true,
      "inputs": [],
      "name": "postCount",
      "outputs": [
        {
          "name": "",
          "type": "uint256"
        }
      ],
      "payable": false,
      "stateMutability": "view",
      "type": "function",
      "signature": "0x17906c2e"
    },
    {
      "inputs": [],
      "payable": false,
      "stateMutability": "nonpayable",
      "type": "constructor",
      "signature": "constructor"
    },
    {
      "constant": false,
      "inputs": [
        {
          "name": "_text",
          "type": "string"
        }
      ],
      "name": "addPost",
      "outputs": [],
      "payable": false,
      "stateMutability": "nonpayable",
      "type": "function",
      "signature": "0xa6322819"
    }
  ],
  "bytecode": "0x608060405234801561001057600080fd5b5061005e6040805190810160405280600b81526020017f48656c6c6f20776f726c640000000000000000000000000000000000000000008152506100b0640100000000026401000000009004565b6100ab6040805190810160405280600681526020017f57686174757000000000000000000000000000000000000000000000000000008152506100b0640100000000026401000000009004565b6101d1565b60016000815480929190600101919050555060606040519081016040528060015481526020018281526020016000815250600080600154815260200190815260200160002060008201518160000155602082015181600101908051906020019061011b92919061012c565b506040820151816002015590505050565b828054600181600116156101000203166002900490600052602060002090601f016020900481019282601f1061016d57805160ff191683800117855561019b565b8280016001018555821561019b579182015b8281111561019a57825182559160200191906001019061017f565b5b5090506101a891906101ac565b5090565b6101ce91905b808211156101ca5760008160009055506001016101b2565b5090565b90565b610426806101e06000396000f3fe608060405260043610610057576000357c0100000000000000000000000000000000000000000000000000000000900463ffffffff1680630b1e7f831461005c57806317906c2e1461011e578063a632281914610149575b600080fd5b34801561006857600080fd5b506100956004803603602081101561007f57600080fd5b8101908080359060200190929190505050610211565b6040518084815260200180602001838152602001828103825284818151815260200191508051906020019080838360005b838110156100e15780820151818401526020810190506100c6565b50505050905090810190601f16801561010e5780820380516001836020036101000a031916815260200191505b5094505050505060405180910390f35b34801561012a57600080fd5b506101336102d3565b6040518082815260200191505060405180910390f35b34801561015557600080fd5b5061020f6004803603602081101561016c57600080fd5b810190808035906020019064010000000081111561018957600080fd5b82018360208201111561019b57600080fd5b803590602001918460018302840111640100000000831117156101bd57600080fd5b91908080601f016020809104026020016040519081016040528093929190818152602001838380828437600081840152601f19601f8201169050808301925050505050505091929192905050506102d9565b005b6000602052806000526040600020600091509050806000015490806001018054600181600116156101000203166002900480601f0160208091040260200160405190810160405280929190818152602001828054600181600116156101000203166002900480156102c35780601f10610298576101008083540402835291602001916102c3565b820191906000526020600020905b8154815290600101906020018083116102a657829003601f168201915b5050505050908060020154905083565b60015481565b600160008154809291906001019190505550606060405190810160405280600154815260200182815260200160008152506000806001548152602001908152602001600020600082015181600001556020820151816001019080519060200190610344929190610355565b506040820151816002015590505050565b828054600181600116156101000203166002900490600052602060002090601f016020900481019282601f1061039657805160ff19168380011785556103c4565b828001600101855582156103c4579182015b828111156103c35782518255916020019190600101906103a8565b5b5090506103d191906103d5565b5090565b6103f791905b808211156103f35760008160009055506001016103db565b5090565b9056fea165627a7a72305820864ddecaf7331dbf55c4377c2163c4c3eb9f5d365f4b0eb277d290e40f87c8e00029",
  "source": "pragma solidity 0.5.0;\n\ncontract Textboard {\n\n\tstruct Post{\n\t\tuint id;\n\t\tstring text;\n\t\tuint date;\n\t}\n\n\tmapping(uint=>Post) public posts;\n\t\n\tuint public postCount;\n\n\tfunction addPost(string memory _text) public{\n\t\tpostCount++;\n\t\tposts[postCount]=Post(postCount, _text, 0);\n\t}\n\n\tconstructor() public {\n\t\taddPost(\"Hello world\");\n\t\taddPost(\"Whatup\");\n\t}\n}\n",
  "sourcePath": "/home/cloud/Documents/textboard/contracts/Textboard.sol",
  "compiler": {
    "name": "solc",
    "version": "0.5.0+commit.1d4f565a.Emscripten.clang"
  },
  "schemaVersion": "3.0.0",
  "updatedAt": "2019-01-13T10:58:53.399Z",
  "devdoc": {
    "methods": {}
  },
  "userdoc": {
    "methods": {}
  }
}