{
  "contractName": "Textboard",
  "abi": [
    {
      "constant": true,
      "inputs": [
        {
          "name": "",
          "type": "uint256"
        }
      ],
      "name": "posts",
      "outputs": [
        {
          "name": "id",
          "type": "uint256"
        },
        {
          "name": "text",
          "type": "string"
        },
        {
          "name": "date",
          "type": "string"
        }
      ],
      "payable": false,
      "stateMutability": "view",
      "type": "function",
      "signature": "0x0b1e7f83"
    },
    {
      "constant": true,
      "inputs": [],
      "name": "postCount",
      "outputs": [
        {
          "name": "",
          "type": "uint256"
        }
      ],
      "payable": false,
      "stateMutability": "view",
      "type": "function",
      "signature": "0x17906c2e"
    },
    {
      "inputs": [],
      "payable": false,
      "stateMutability": "nonpayable",
      "type": "constructor",
      "signature": "constructor"
    },
    {
      "constant": false,
      "inputs": [
        {
          "name": "_text",
          "type": "string"
        },
        {
          "name": "_date",
          "type": "string"
        }
      ],
      "name": "addPost",
      "outputs": [],
      "payable": false,
      "stateMutability": "nonpayable",
      "type": "function",
      "signature": "0xb02c6516"
    }
  ],
  "bytecode": "0x608060405234801561001057600080fd5b506100946040805190810160405280600b81526020017f48656c6c6f20776f726c640000000000000000000000000000000000000000008152506040805190810160405280600181526020017f300000000000000000000000000000000000000000000000000000000000000081525061011c640100000000026401000000009004565b6101176040805190810160405280600681526020017f57686174757000000000000000000000000000000000000000000000000000008152506040805190810160405280600181526020017f300000000000000000000000000000000000000000000000000000000000000081525061011c640100000000026401000000009004565b610250565b60016000815480929190600101919050555060606040519081016040528060015481526020018381526020018281525060008060015481526020019081526020016000206000820151816000015560208201518160010190805190602001906101869291906101ab565b5060408201518160020190805190602001906101a39291906101ab565b509050505050565b828054600181600116156101000203166002900490600052602060002090601f016020900481019282601f106101ec57805160ff191683800117855561021a565b8280016001018555821561021a579182015b828111156102195782518255916020019190600101906101fe565b5b509050610227919061022b565b5090565b61024d91905b80821115610249576000816000905550600101610231565b5090565b90565b6105cd8061025f6000396000f3fe608060405260043610610057576000357c0100000000000000000000000000000000000000000000000000000000900463ffffffff1680630b1e7f831461005c57806317906c2e14610183578063b02c6516146101ae575b600080fd5b34801561006857600080fd5b506100956004803603602081101561007f57600080fd5b810190808035906020019092919050505061030d565b604051808481526020018060200180602001838103835285818151815260200191508051906020019080838360005b838110156100df5780820151818401526020810190506100c4565b50505050905090810190601f16801561010c5780820380516001836020036101000a031916815260200191505b50838103825284818151815260200191508051906020019080838360005b8381101561014557808201518184015260208101905061012a565b50505050905090810190601f1680156101725780820380516001836020036101000a031916815260200191505b509550505050505060405180910390f35b34801561018f57600080fd5b50610198610467565b6040518082815260200191505060405180910390f35b3480156101ba57600080fd5b5061030b600480360360408110156101d157600080fd5b81019080803590602001906401000000008111156101ee57600080fd5b82018360208201111561020057600080fd5b8035906020019184600183028401116401000000008311171561022257600080fd5b91908080601f016020809104026020016040519081016040528093929190818152602001838380828437600081840152601f19601f8201169050808301925050505050505091929192908035906020019064010000000081111561028557600080fd5b82018360208201111561029757600080fd5b803590602001918460018302840111640100000000831117156102b957600080fd5b91908080601f016020809104026020016040519081016040528093929190818152602001838380828437600081840152601f19601f82011690508083019250505050505050919291929050505061046d565b005b6000602052806000526040600020600091509050806000015490806001018054600181600116156101000203166002900480601f0160208091040260200160405190810160405280929190818152602001828054600181600116156101000203166002900480156103bf5780601f10610394576101008083540402835291602001916103bf565b820191906000526020600020905b8154815290600101906020018083116103a257829003601f168201915b505050505090806002018054600181600116156101000203166002900480601f01602080910402602001604051908101604052809291908181526020018280546001816001161561010002031660029004801561045d5780601f106104325761010080835404028352916020019161045d565b820191906000526020600020905b81548152906001019060200180831161044057829003601f168201915b5050505050905083565b60015481565b60016000815480929190600101919050555060606040519081016040528060015481526020018381526020018281525060008060015481526020019081526020016000206000820151816000015560208201518160010190805190602001906104d79291906104fc565b5060408201518160020190805190602001906104f49291906104fc565b509050505050565b828054600181600116156101000203166002900490600052602060002090601f016020900481019282601f1061053d57805160ff191683800117855561056b565b8280016001018555821561056b579182015b8281111561056a57825182559160200191906001019061054f565b5b509050610578919061057c565b5090565b61059e91905b8082111561059a576000816000905550600101610582565b5090565b9056fea165627a7a72305820eb8215e0039f4415563939514ba94c61b051c144be8a767dd0171fc6b56becd20029",
  "source": "pragma solidity 0.5.0;\n\ncontract Textboard {\n\n\tstruct Post{\n\t\tuint id;\n\t\tstring text;\n\t\tstring date;\n\t}\n\n\tmapping(uint=>Post) public posts;\n\t\n\tuint public postCount;\n\n\tfunction addPost(string memory _text, string memory _date) public{\n\t\tpostCount++;\n\t\tposts[postCount]=Post(postCount, _text, _date);\n\t}\n\n\tconstructor() public {\n\t\taddPost(\"Hello world\",\"0\");\n\t\taddPost(\"Whatup\",\"0\");\n\t}\n}\n",
  "sourcePath": "/home/cloud/Documents/textboard/contracts/Textboard.sol",
  "compiler": {
    "name": "solc",
    "version": "0.5.0+commit.1d4f565a.Emscripten.clang"
  },
  "schemaVersion": "3.0.0",
  "updatedAt": "2019-01-21T11:39:28.115Z",
  "devdoc": {
    "methods": {}
  },
  "userdoc": {
    "methods": {}
  }
}